{
  "contractName": "MultiAgriConnect",
  "abi": [
    {
      "anonymous": false,
      "inputs": [
        {
          "indexed": true,
          "internalType": "uint256",
          "name": "contractId",
          "type": "uint256"
        },
        {
          "indexed": true,
          "internalType": "address",
          "name": "farmer",
          "type": "address"
        },
        {
          "indexed": true,
          "internalType": "address",
          "name": "buyer",
          "type": "address"
        }
      ],
      "name": "ContractCreated",
      "type": "event"
    },
    {
      "anonymous": false,
      "inputs": [
        {
          "indexed": true,
          "internalType": "uint256",
          "name": "contractId",
          "type": "uint256"
        }
      ],
      "name": "ContractSigned",
      "type": "event"
    },
    {
      "anonymous": false,
      "inputs": [
        {
          "indexed": true,
          "internalType": "uint256",
          "name": "contractId",
          "type": "uint256"
        },
        {
          "indexed": true,
          "internalType": "address",
          "name": "payer",
          "type": "address"
        },
        {
          "indexed": false,
          "internalType": "uint256",
          "name": "amount",
          "type": "uint256"
        }
      ],
      "name": "PaymentMade",
      "type": "event"
    },
    {
      "inputs": [],
      "name": "contractCount",
      "outputs": [
        {
          "internalType": "uint256",
          "name": "",
          "type": "uint256"
        }
      ],
      "stateMutability": "view",
      "type": "function",
      "constant": true
    },
    {
      "inputs": [
        {
          "internalType": "uint256",
          "name": "",
          "type": "uint256"
        }
      ],
      "name": "contracts",
      "outputs": [
        {
          "internalType": "address",
          "name": "farmer",
          "type": "address"
        },
        {
          "internalType": "address",
          "name": "buyer",
          "type": "address"
        },
        {
          "internalType": "string",
          "name": "contractDetails",
          "type": "string"
        },
        {
          "internalType": "bool",
          "name": "isSigned",
          "type": "bool"
        },
        {
          "internalType": "uint256",
          "name": "totalAmount",
          "type": "uint256"
        },
        {
          "internalType": "uint256",
          "name": "installmentAmount",
          "type": "uint256"
        },
        {
          "internalType": "uint256",
          "name": "installmentsRemaining",
          "type": "uint256"
        },
        {
          "internalType": "uint256",
          "name": "nextPaymentDue",
          "type": "uint256"
        }
      ],
      "stateMutability": "view",
      "type": "function",
      "constant": true
    },
    {
      "inputs": [
        {
          "internalType": "uint256",
          "name": "",
          "type": "uint256"
        },
        {
          "internalType": "address",
          "name": "",
          "type": "address"
        }
      ],
      "name": "paymentsMade",
      "outputs": [
        {
          "internalType": "uint256",
          "name": "",
          "type": "uint256"
        }
      ],
      "stateMutability": "view",
      "type": "function",
      "constant": true
    },
    {
      "inputs": [
        {
          "internalType": "address",
          "name": "_farmer",
          "type": "address"
        },
        {
          "internalType": "string",
          "name": "_contractDetails",
          "type": "string"
        },
        {
          "internalType": "uint256",
          "name": "_totalAmount",
          "type": "uint256"
        },
        {
          "internalType": "uint256",
          "name": "_installmentAmount",
          "type": "uint256"
        }
      ],
      "name": "createContract",
      "outputs": [
        {
          "internalType": "uint256",
          "name": "",
          "type": "uint256"
        }
      ],
      "stateMutability": "nonpayable",
      "type": "function"
    },
    {
      "inputs": [
        {
          "internalType": "uint256",
          "name": "_contractId",
          "type": "uint256"
        }
      ],
      "name": "signContract",
      "outputs": [],
      "stateMutability": "nonpayable",
      "type": "function"
    },
    {
      "inputs": [
        {
          "internalType": "uint256",
          "name": "_contractId",
          "type": "uint256"
        }
      ],
      "name": "makePayment",
      "outputs": [],
      "stateMutability": "payable",
      "type": "function",
      "payable": true
    },
    {
      "inputs": [
        {
          "internalType": "uint256",
          "name": "_contractId",
          "type": "uint256"
        }
      ],
      "name": "getContractDetails",
      "outputs": [
        {
          "internalType": "address",
          "name": "farmer",
          "type": "address"
        },
        {
          "internalType": "address",
          "name": "buyer",
          "type": "address"
        },
        {
          "internalType": "string",
          "name": "contractDetails",
          "type": "string"
        },
        {
          "internalType": "bool",
          "name": "isSigned",
          "type": "bool"
        },
        {
          "internalType": "uint256",
          "name": "totalAmount",
          "type": "uint256"
        },
        {
          "internalType": "uint256",
          "name": "installmentAmount",
          "type": "uint256"
        },
        {
          "internalType": "uint256",
          "name": "installmentsRemaining",
          "type": "uint256"
        },
        {
          "internalType": "uint256",
          "name": "nextPaymentDue",
          "type": "uint256"
        }
      ],
      "stateMutability": "view",
      "type": "function",
      "constant": true
    }
  ],
  "bytecode": "0x608060405234801561001057600080fd5b50611519806100206000396000f3fe6080604052600436106100705760003560e01c80635114cb521161004e5780635114cb521461013a5780638736381a146101565780638fcf2d05146101815780639537e8d1146101be57610070565b806324cc936b14610075578063474da79a146100b25780634d6d6a9c146100f6575b600080fd5b34801561008157600080fd5b5061009c60048036038101906100979190610c3c565b6101e7565b6040516100a99190610cce565b60405180910390f35b3480156100be57600080fd5b506100d960048036038101906100d49190610ce9565b610368565b6040516100ed989796959493929190610dbf565b60405180910390f35b34801561010257600080fd5b5061011d60048036038101906101189190610ce9565b610485565b604051610131989796959493929190610dbf565b60405180910390f35b610154600480360381019061014f9190610ce9565b6105c3565b005b34801561016257600080fd5b5061016b6108db565b6040516101789190610cce565b60405180910390f35b34801561018d57600080fd5b506101a860048036038101906101a39190610e44565b6108e1565b6040516101b59190610cce565b60405180910390f35b3480156101ca57600080fd5b506101e560048036038101906101e09190610ce9565b610906565b005b6000600160008154809291906101fc90610eb3565b9190505550600080600060015481526020019081526020016000209050858160000160006101000a81548173ffffffffffffffffffffffffffffffffffffffff021916908373ffffffffffffffffffffffffffffffffffffffff160217905550338160010160006101000a81548173ffffffffffffffffffffffffffffffffffffffff021916908373ffffffffffffffffffffffffffffffffffffffff160217905550848160020190816102b09190611107565b5060008160030160006101000a81548160ff02191690831515021790555083816004018190555082816005018190555082846102ec9190611208565b81600601819055504281600701819055503373ffffffffffffffffffffffffffffffffffffffff168673ffffffffffffffffffffffffffffffffffffffff166001547f56560a52c047ed21fd801bf0f345b23d9af696f7922ff8e63101af5d48caddab60405160405180910390a4600154915050949350505050565b60006020528060005260406000206000915090508060000160009054906101000a900473ffffffffffffffffffffffffffffffffffffffff16908060010160009054906101000a900473ffffffffffffffffffffffffffffffffffffffff16908060020180546103d790610f2a565b80601f016020809104026020016040519081016040528092919081815260200182805461040390610f2a565b80156104505780601f1061042557610100808354040283529160200191610450565b820191906000526020600020905b81548152906001019060200180831161043357829003601f168201915b5050505050908060030160009054906101000a900460ff16908060040154908060050154908060060154908060070154905088565b60008060606000806000806000806000808b815260200190815260200160002090508060000160009054906101000a900473ffffffffffffffffffffffffffffffffffffffff168160010160009054906101000a900473ffffffffffffffffffffffffffffffffffffffff16826002018360030160009054906101000a900460ff16846004015485600501548660060154876007015485805461052790610f2a565b80601f016020809104026020016040519081016040528092919081815260200182805461055390610f2a565b80156105a05780601f10610575576101008083540402835291602001916105a0565b820191906000526020600020905b81548152906001019060200180831161058357829003601f168201915b505050505095509850985098509850985098509850985050919395975091939597565b600080600083815260200190815260200160002090508060030160009054906101000a900460ff1661062a576040517f08c379a000000000000000000000000000000000000000000000000000000000815260040161062190611285565b60405180910390fd5b8060010160009054906101000a900473ffffffffffffffffffffffffffffffffffffffff1673ffffffffffffffffffffffffffffffffffffffff163373ffffffffffffffffffffffffffffffffffffffff16146106bc576040517f08c379a00000000000000000000000000000000000000000000000000000000081526004016106b3906112f1565b60405180910390fd5b80600501543414610702576040517f08c379a00000000000000000000000000000000000000000000000000000000081526004016106f99061135d565b60405180910390fd5b346002600084815260200190815260200160002060003373ffffffffffffffffffffffffffffffffffffffff1673ffffffffffffffffffffffffffffffffffffffff1681526020019081526020016000206000828254610762919061137d565b92505081905550600181600601600082825461077e91906113b1565b9250508190555062278d0042610794919061137d565b8160070181905550600081600601540361081c578060000160009054906101000a900473ffffffffffffffffffffffffffffffffffffffff1673ffffffffffffffffffffffffffffffffffffffff166108fc82600401549081150290604051600060405180830381858888f19350505050158015610816573d6000803e3d6000fd5b50610888565b8060000160009054906101000a900473ffffffffffffffffffffffffffffffffffffffff1673ffffffffffffffffffffffffffffffffffffffff166108fc349081150290604051600060405180830381858888f19350505050158015610886573d6000803e3d6000fd5b505b3373ffffffffffffffffffffffffffffffffffffffff16827f61ac8e9b735e72d1382cbf7d35f2ff3764dae09d7faf7d90787bf7f9ae76e4c8346040516108cf9190610cce565b60405180910390a35050565b60015481565b6002602052816000526040600020602052806000526040600020600091509150505481565b600080600083815260200190815260200160002090508060030160009054906101000a900460ff161561096e576040517f08c379a000000000000000000000000000000000000000000000000000000000815260040161096590611431565b60405180910390fd5b8060010160009054906101000a900473ffffffffffffffffffffffffffffffffffffffff1673ffffffffffffffffffffffffffffffffffffffff163373ffffffffffffffffffffffffffffffffffffffff1614610a00576040517f08c379a00000000000000000000000000000000000000000000000000000000081526004016109f7906114c3565b60405180910390fd5b60018160030160006101000a81548160ff021916908315150217905550817faf3c49f5413fd292e2325b0fe214de144a222b00cb6ec21214fdc04b5d6c591360405160405180910390a25050565b6000604051905090565b600080fd5b600080fd5b600073ffffffffffffffffffffffffffffffffffffffff82169050919050565b6000610a8d82610a62565b9050919050565b610a9d81610a82565b8114610aa857600080fd5b50565b600081359050610aba81610a94565b92915050565b600080fd5b600080fd5b6000601f19601f8301169050919050565b7f4e487b7100000000000000000000000000000000000000000000000000000000600052604160045260246000fd5b610b1382610aca565b810181811067ffffffffffffffff82111715610b3257610b31610adb565b5b80604052505050565b6000610b45610a4e565b9050610b518282610b0a565b919050565b600067ffffffffffffffff821115610b7157610b70610adb565b5b610b7a82610aca565b9050602081019050919050565b82818337600083830152505050565b6000610ba9610ba484610b56565b610b3b565b905082815260208101848484011115610bc557610bc4610ac5565b5b610bd0848285610b87565b509392505050565b600082601f830112610bed57610bec610ac0565b5b8135610bfd848260208601610b96565b91505092915050565b6000819050919050565b610c1981610c06565b8114610c2457600080fd5b50565b600081359050610c3681610c10565b92915050565b60008060008060808587031215610c5657610c55610a58565b5b6000610c6487828801610aab565b945050602085013567ffffffffffffffff811115610c8557610c84610a5d565b5b610c9187828801610bd8565b9350506040610ca287828801610c27565b9250506060610cb387828801610c27565b91505092959194509250565b610cc881610c06565b82525050565b6000602082019050610ce36000830184610cbf565b92915050565b600060208284031215610cff57610cfe610a58565b5b6000610d0d84828501610c27565b91505092915050565b610d1f81610a82565b82525050565b600081519050919050565b600082825260208201905092915050565b60005b83811015610d5f578082015181840152602081019050610d44565b60008484015250505050565b6000610d7682610d25565b610d808185610d30565b9350610d90818560208601610d41565b610d9981610aca565b840191505092915050565b60008115159050919050565b610db981610da4565b82525050565b600061010082019050610dd5600083018b610d16565b610de2602083018a610d16565b8181036040830152610df48189610d6b565b9050610e036060830188610db0565b610e106080830187610cbf565b610e1d60a0830186610cbf565b610e2a60c0830185610cbf565b610e3760e0830184610cbf565b9998505050505050505050565b60008060408385031215610e5b57610e5a610a58565b5b6000610e6985828601610c27565b9250506020610e7a85828601610aab565b9150509250929050565b7f4e487b7100000000000000000000000000000000000000000000000000000000600052601160045260246000fd5b6000610ebe82610c06565b91507fffffffffffffffffffffffffffffffffffffffffffffffffffffffffffffffff8203610ef057610eef610e84565b5b600182019050919050565b7f4e487b7100000000000000000000000000000000000000000000000000000000600052602260045260246000fd5b60006002820490506001821680610f4257607f821691505b602082108103610f5557610f54610efb565b5b50919050565b60008190508160005260206000209050919050565b60006020601f8301049050919050565b600082821b905092915050565b600060088302610fbd7fffffffffffffffffffffffffffffffffffffffffffffffffffffffffffffffff82610f80565b610fc78683610f80565b95508019841693508086168417925050509392505050565b6000819050919050565b6000611004610fff610ffa84610c06565b610fdf565b610c06565b9050919050565b6000819050919050565b61101e83610fe9565b61103261102a8261100b565b848454610f8d565b825550505050565b600090565b61104761103a565b611052818484611015565b505050565b5b818110156110765761106b60008261103f565b600181019050611058565b5050565b601f8211156110bb5761108c81610f5b565b61109584610f70565b810160208510156110a4578190505b6110b86110b085610f70565b830182611057565b50505b505050565b600082821c905092915050565b60006110de600019846008026110c0565b1980831691505092915050565b60006110f783836110cd565b9150826002028217905092915050565b61111082610d25565b67ffffffffffffffff81111561112957611128610adb565b5b6111338254610f2a565b61113e82828561107a565b600060209050601f831160018114611171576000841561115f578287015190505b61116985826110eb565b8655506111d1565b601f19841661117f86610f5b565b60005b828110156111a757848901518255600182019150602085019450602081019050611182565b868310156111c457848901516111c0601f8916826110cd565b8355505b6001600288020188555050505b505050505050565b7f4e487b7100000000000000000000000000000000000000000000000000000000600052601260045260246000fd5b600061121382610c06565b915061121e83610c06565b92508261122e5761122d6111d9565b5b828204905092915050565b7f436f6e7472616374206973206e6f74207369676e656400000000000000000000600082015250565b600061126f601683610d30565b915061127a82611239565b602082019050919050565b6000602082019050818103600083015261129e81611262565b9050919050565b7f4f6e6c79207468652062757965722063616e206d616b65207061796d656e7473600082015250565b60006112db602083610d30565b91506112e6826112a5565b602082019050919050565b6000602082019050818103600083015261130a816112ce565b9050919050565b7f496e636f727265637420696e7374616c6c6d656e7420616d6f756e7400000000600082015250565b6000611347601c83610d30565b915061135282611311565b602082019050919050565b600060208201905081810360008301526113768161133a565b9050919050565b600061138882610c06565b915061139383610c06565b92508282019050808211156113ab576113aa610e84565b5b92915050565b60006113bc82610c06565b91506113c783610c06565b92508282039050818111156113df576113de610e84565b5b92915050565b7f436f6e747261637420697320616c7265616479207369676e6564000000000000600082015250565b600061141b601a83610d30565b9150611426826113e5565b602082019050919050565b6000602082019050818103600083015261144a8161140e565b9050919050565b7f4f6e6c79207468652064657369676e617465642062757965722063616e20736960008201527f676e2074686520636f6e74726163740000000000000000000000000000000000602082015250565b60006114ad602f83610d30565b91506114b882611451565b604082019050919050565b600060208201905081810360008301526114dc816114a0565b905091905056fea264697066735822122032d65f7a8f6f0b2e84246125b25c376edf7e8109c9781148acffb5e18a13950064736f6c63430008110033",
  "immutableReferences": {},
  "source": "// SPDX-License-Identifier: MIT\npragma solidity >=0.5.0 <0.9.0;\n\ncontract MultiAgriConnect {\n    struct ContractDetails {\n        address farmer;\n        address buyer;\n        string contractDetails;\n        bool isSigned;\n        uint256 totalAmount;\n        uint256 installmentAmount;\n        uint256 installmentsRemaining;\n        uint256 nextPaymentDue;\n    }\n\n    mapping(uint256 => ContractDetails) public contracts;\n    uint256 public contractCount;\n\n    mapping(uint256 => mapping(address => uint256)) public paymentsMade;\n\n    event ContractCreated(uint256 indexed contractId, address indexed farmer, address indexed buyer);\n    event ContractSigned(uint256 indexed contractId);\n    event PaymentMade(uint256 indexed contractId, address indexed payer, uint256 amount);\n\n    function createContract(\n        address _farmer,\n        string memory _contractDetails,\n        uint256 _totalAmount,\n        uint256 _installmentAmount\n    ) public returns (uint256) {\n        contractCount++;\n        ContractDetails storage newContract = contracts[contractCount];\n\n        newContract.farmer = _farmer;\n        newContract.buyer = msg.sender;\n        newContract.contractDetails = _contractDetails;\n        newContract.isSigned = false;\n        newContract.totalAmount = _totalAmount;\n        newContract.installmentAmount = _installmentAmount;\n        newContract.installmentsRemaining = _totalAmount / _installmentAmount;\n        newContract.nextPaymentDue = block.timestamp;\n\n        emit ContractCreated(contractCount, _farmer, msg.sender);\n        return contractCount;\n    }\n\n    function signContract(uint256 _contractId) public {\n        ContractDetails storage contractToSign = contracts[_contractId];\n        require(!contractToSign.isSigned, \"Contract is already signed\");\n        require(msg.sender == contractToSign.buyer, \"Only the designated buyer can sign the contract\");\n        contractToSign.isSigned = true;\n        emit ContractSigned(_contractId);\n    }\n\n    function makePayment(uint256 _contractId) public payable {\n        ContractDetails storage contractToPay = contracts[_contractId];\n        require(contractToPay.isSigned, \"Contract is not signed\");\n        require(msg.sender == contractToPay.buyer, \"Only the buyer can make payments\");\n        require(msg.value == contractToPay.installmentAmount, \"Incorrect installment amount\");\n\n        paymentsMade[_contractId][msg.sender] += msg.value;\n        contractToPay.installmentsRemaining -= 1;\n        contractToPay.nextPaymentDue = block.timestamp + 30 days;\n\n        if (contractToPay.installmentsRemaining == 0) {\n            payable(contractToPay.farmer).transfer(contractToPay.totalAmount);\n        } else {\n            payable(contractToPay.farmer).transfer(msg.value);\n        }\n\n        emit PaymentMade(_contractId, msg.sender, msg.value);\n    }\n\n    function getContractDetails(uint256 _contractId) public view returns (\n        address farmer,\n        address buyer,\n        string memory contractDetails,\n        bool isSigned,\n        uint256 totalAmount,\n        uint256 installmentAmount,\n        uint256 installmentsRemaining,\n        uint256 nextPaymentDue\n    ) {\n        ContractDetails storage contractToView = contracts[_contractId];\n        return (\n            contractToView.farmer,\n            contractToView.buyer,\n            contractToView.contractDetails,\n            contractToView.isSigned,\n            contractToView.totalAmount,\n            contractToView.installmentAmount,\n            contractToView.installmentsRemaining,\n            contractToView.nextPaymentDue\n        );\n    }\n}",
  "sourcePath": "C:\\Users\\Supreeth C\\OneDrive\\Documents\\VSC_professional\\SIH\\contracts\\MultiAgriConnect.sol",
  "compiler": {
    "name": "solc",
    "version": "0.8.17+commit.8df45f5f.Emscripten.clang"
  },
  "schemaVersion": "3.4.16",
  "updatedAt": "2024-09-04T15:35:28.406Z",
  "networkType": "ethereum",
  "devdoc": {
    "kind": "dev",
    "methods": {},
    "version": 1
  },
  "userdoc": {
    "kind": "user",
    "methods": {},
    "version": 1
  }
}